:04000000FEEFFFF020
:020000040001F9
:10FECA0000018FEFFFF07DECFFF0B0ECFFF06FEC7C
:10FEDA00FFF01200620E0001AD6F000EAF6F000E50
:10FEEA00B36F020EB16F000EB06F000EAC6F12004E
:10FEFA00000E0001606F000E616F000E636F000E4E
:10FF0A00646F000E656F000E666F000E676F000E5D
:10FF1A00686F120068ECFFF0C3B696EFFFF099EF36
:10FF2A00FFF0010E9AEFFFF0000EFF0A016E014684
:10FF3A0001460146C3500118F70B0118C36EA30E00
:10FF4A00016E550EE82EFED7012EFCD700F091EF78
:10FF5A00FFF0FEEFFFF0000EC26E000EC16E000E43
:10FF6A00BE6E080EC36E000EBF6E000EC06E070E88
:10FF7A00CA6EF70ECB6EC668C768C868C96804013E
:10FF8A00186910690869070E206FF70E286F006953
:10FF9A00000E196F080E296F000E216F000E096FEF
:10FFAA00000E016F000E116F000E0201896F000E24
:10FFBA00886F000E876F000E866F000E0401226F95
:10FFCA00000E2A6F000E026F000E0A6F000E126FEB
:10FFDA00000E1A6F03690B6913691B69070E236FF9
:10FFEA002B6904690C6914691C690F0E246F2C694A
:06FFFA00120065EFFFF0AC
:020000040020DA
:10000000FF0FFF0FFF0FFF0FFF0FFF0FFF0FFF0F80
:10001000FF0FFF0FFF0FFF0FFF0FFF0FFF0FFF0F70
:10002000FF0FFF0FFF0FFF0FFF0FFF0FFF0FFF0F60
:10003000FF0FFF0FFF0FFF0FFF0FFF0FFF0FFF0F50
:020000040030CA
:0A000000ECFFF7FF9FFFFFFFFFFF7B
:00000001FF
