:040000000DEF00F010
:0400080065EF00F0B0
:10001800FF004DEF01F0000EC26E000EC16E000E23
:10002800BE6E000EC36E000EBF6E000EC06E070ED1
:10003800CA6ECB68FA0EC66EC768C868C96804017C
:1000480018691069F80E086F070E206F2869FA0EF4
:10005800006F000E196F000E296F000E216F000E41
:10006800096F050E016F000E116F000E0201896FF6
:10007800000E886F000E876F000E866F000E040159
:10008800226F000E2A6F000E026F000E0A6F000E1C
:10009800126F000E1A6F03690B6913691B69070E4B
:1000A800236F2B6904690C6914691C690F0E246F8E
:1000B8002C69080E02013E6F0A0E406F090E3F6F51
:1000C8001200FAC40BF5FBC40CF59FA06EEF00F00C
:1000D80070EF00F07BEF00F0AFA075EF00F077EF66
:1000E80000F07BEF00F07CEC01F09FEF00F0A4A0A3
:1000F80080EF00F082EF00F08DEF00F0B4A087EF02
:1001080000F089EF00F08DEF00F078EC01F09FEF40
:1001180000F0A8A092EF00F094EF00F09FEF00F03D
:10012800B8A099EF00F09BEF00F09FEF00F074EC9F
:1001380001F09FEF00F00CC5FBF40BC5FAF41100B9
:10014800AF90D680080E0D6E030E0E6E000E0F6E69
:100158006DEC01F09F80B490D682060E0D6E030EF2
:100168000E6E000E0F6E66EC01F0A480B890D68477
:10017800040E0D6E030E0E6E000E0F6E5FEC01F096
:10018800A880120022EC01F0075008100910D8B41A
:10019800D0EF00F0D2EF00F0DFEF00F002D8DFEF91
:1001A80000F00500FA6E0750FD6E0850FE6E09500B
:1001B800FF6EFA5012001200015002100310D8B45A
:1001C800E8EF00F0EAEF00F0F7EF00F002D8F7EF01
:1001D80000F00500FA6E0150FD6E0250FE6E0350ED
:1001E800FF6EFA5012001200045005100610D8B421
:1001F80000EF01F002EF01F00FEF01F002D80FEF6E
:1002080001F00500FA6E0450FD6E0550FE6E0650B2
:10021800FF6EFA5012001200000E0001606F000E0F
:10022800616F000E636F000E646F000E656F000E45
:10023800666F000E676F000E686F1200BEB027EF82
:1002480001F02AEF01F0010E2BEF01F0000EFF0A7A
:100258000A6EBE500A18FE0B0A18BE6EBE94120033
:10026800620E0001AD6F000EAF6F000EB36F020E8D
:10027800B16F000EB06F000EAC6F120080EC01F091
:1002880010EC01F00FEC00F034EC01F0A4EC00F0FD
:1002980012000401080E5D6F000E5E6F000E5F6FA6
:1002A800000157EF01F042EC01F0D68EBE845AEF00
:1002B80001F00DEF00F00DC501F50EC502F50FC5F3
:1002C80003F512000DC504F50EC505F50FC506F5B5
:1002D80012000DC507F50EC508F50FC509F5120082
:1002E800B890E0EC00F01200B490F8EC00F01200C6
:1002F800AF90C6EC00F01200D69A1200120012005D
:020308001200E1
:020000040020DA
:10000000FF0FFF0FFF0FFF0FFF0FFF0FFF0FFF0F80
:10001000FF0FFF0FFF0FFF0FFF0FFF0FFF0FFF0F70
:10002000FF0FFF0FFF0FFF0FFF0FFF0FFF0FFF0F60
:10003000FF0FFF0FFF0FFF0FFF0FFF0FFF0FFF0F50
:020000040030CA
:0A000000ECFFF7FF9FFFFFFFFFFF7B
:00000001FF
