:04000000FEEFFFF020
:072600000002400001000090
:10260800076E000184BF0BEF13F00DEF13F05EEFC0
:1026180013F00750050D010EF324F66E260EF42074
:10262800F76E0800F5C484F00750050D010EF32677
:10263800000EF422010EF324F66E260EF420F76E37
:102648000800F5C485F00750050D020EF326000EAC
:10265800F422010EF324F66E260EF420F76E08001D
:10266800F5500309866F0750050D030EF326000E7B
:10267800F422010EF324F66E260EF420F76E0800FD
:10268800F5C489F00750050D040EF326000EF42258
:10269800010EF324F66E260EF420F76E0800F5C43A
:1026A80006F5063A06460646C8500618BF0B061831
:1026B800C86E848F1200000EC26E000EC16E000E2E
:1026C800BE6E000EC36E000EBF6E000EC06E070E0B
:1026D800CA6ECB68C668C768AF0EC86EEF0EC96E03
:1026E800EF0E0401186F8F0E106F0869070E206F28
:1026F80028690069000E196F000E296F000E216FFE
:10270800000E096F000E016F000E116F000E02011E
:10271800896F000E886F000E876F000E866F000E9F
:102728000401226F000E2A6F000E026F000E0A6F5E
:10273800000E126F000E1A6F03690B6913691B698B
:10274800070E236F2B6904690C6914691C690F0E45
:10275800246F2C69160E02016A6F320E156F310E46
:10276800176F150E6B6F1200000E0001E86F810ED7
:10277800F96F000EFA6F000EFB6F000EF16F800EFE
:10278800F06F420EFD6F000EF86F050EF76F000E2A
:10279800EF6F050EEE6F190EFF6F000EFE6FB09A09
:1027A800B098B09EB09CA09AA098A09EA09CC00E85
:1027B800FC6F1200BA0EF66E280EF76E000EF86E59
:1027C80001EE01F110EE05F00900F5C4EEF4E55054
:1027D800E150FAE1000EF86E260EF76E0001F5EFF3
:1027E80013F02AEC14F0000E04EC13F0010E066E40
:1027F800050E076E000E086E44EC14F055EC14F04C
:102808005AEC14F0F7EF13F0FEEFFFF0000E0001A2
:10281800606F000E616F000E636F000E646F000E34
:10282800656F000E666F000E676F000E686F12000E
:10283800620E0001AD6F000EAF6F000EB36F010E98
:10284800B16F000EB06F000EAC6F12000AEC14F0FE
:102858005FEC13F01CEC14F0B8EC13F037EC14F048
:102868004EEC14F01200020E0001846F400E856FCA
:10287800000E866F000E8C6F010E896FC89C1200C7
:10288800000E0001E86F06C5F9F007C5FAF008C5A3
:10289800FBF01200550E0001B46FAA0EB46FB4819C
:1028A8001200000E0001E86FFC8D12000001849FE9
:0728B80012004142434400FD
:020000040001F9
:04FFFC00DEEF13F031
:020000040020DA
:10000000FF0FFF0FFF0FFF0FFF0FFF0FFF0FFF0F80
:10001000FF0FFF0FFF0FFF0FFF0FFF0FFF0FFF0F70
:10002000FF0FFF0FFF0FFF0FFF0FFF0FFF0FFF0F60
:10003000FF0FFF0FFF0FFF0FFF0FFF0FFF0FFF0F50
:020000040030CA
:0A000000ECFFF7FF9FFFFFFFFFFF7B
:00000001FF
