:040000000DEF00F010
:04000800CAEF00F04B
:10001800FF00E9EF00F0000EC26E000EC16E000E88
:10002800BE6E000EC36E000EBF6E000EC06E070ED1
:10003800CA6ECB68EF0EC66EF90EC76EC868C9687F
:10004800040118691069F90E086F070E206F2869F6
:100058000069000E196F000E296F000E216F000E47
:10006800096F000E016F000E116F000E0201896FFB
:10007800000E886F000E876F000E866F000E040159
:10008800226F000E2A6F000E026F000E0A6F000E1C
:10009800126F000E1A6F03690B6913691B69070E4B
:1000A800236F2B6904690C6914691C690F0E246F8E
:1000B8002C691200F5EC00F090EC00F00EEC01F069
:1000C800D68E4A0E026E010E036E000E046E00EC10
:1000D80001F007EC01F0030AD8A475EF00F077EF00
:1000E80000F07AEF00F0BF820BEC01F0BF84210E24
:1000F800056E760EE82EFED7052EFCD700D0BF94ED
:10010800110E056E3A0EE82EFED7052EFCD700D04C
:100118007AEF00F00DEF00F0490E03011B6F980E07
:10012800196F000E186FB19EA18E000E026E000EA0
:10013800036E000E046E00EC01F0870E03011A6FC7
:100148001200B19EBFB2ABEF00F0AEEF00F0010EAF
:10015800AFEF00F0000EFF0A016E0146BF50011814
:10016800FD0B0118BF6E1200000E0001606F000E3B
:10017800616F000E636F000E646F000E656F000EF6
:10018800666F000E676F000E686F1200A1AECFEFAA
:1001980000F0D1EF00F0DAEF00F0B1AED6EF00F0EA
:1001A800D8EF00F0DAEF00F0A5EC00F01100640ED3
:1001B8000001AD6F000EAF6F000EB36F030EB16F8D
:1001C800000EB06F000EAC6F12000401080E5D6FD8
:1001D800000E5E6F000E5F6F000EF86E00015EEF9E
:1001E80000F011EC01F0B8EC00F00FEC00F0DBECE3
:1001F80000F090EC00F0120002C506F503C507F503
:1002080004C508F5120018C302F5025012000301D4
:0E0218001A9F120003011A8F1200D69A1200CC
:020000040020DA
:10000000FF0FFF0FFF0FFF0FFF0FFF0FFF0FFF0F80
:10001000FF0FFF0FFF0FFF0FFF0FFF0FFF0FFF0F70
:10002000FF0FFF0FFF0FFF0FFF0FFF0FFF0FFF0F60
:10003000FF0FFF0FFF0FFF0FFF0FFF0FFF0FFF0F50
:020000040030CA
:0A000000ECFFF7FF9FFFFFFFFFFF7B
:00000001FF
