:040000000DEF00F010
:04000800FFEF00F016
:10001800FF0004EF02F045EC02F00009D8B417EF36
:1000280000F019EF00F026EF00F0D4EC02F0F5EC48
:1000380002F0FF0ECCEC02F0EFEC02F0000E146EB2
:10004800A7EF00F0D4EC02F066EC02F00009D8B497
:1000580030EF00F032EF00F044EF00F05BEC02F01C
:100068000009D8B43AEF00F03CEF00F040EF00F0A0
:10007800010E146E88EF00F0020E146E88EF00F087
:100088005BEC02F00009D8B44CEF00F04EEF00F042
:1000980052EF00F0030E146E88EF00F0040E146E99
:1000A80088EF00F0DAEC01F0F5EC02F03AEC02F03F
:1000B8000009D8B462EF00F064EF00F0A5EF00F09B
:1000C800AAEC01F0A5EF00F0DAEC01F0F5EC02F093
:1000D800A5EF00F03AEC02F00009D8B476EF00F092
:1000E80078EF00F0A5EF00F064EF00F050EC02F0BC
:1000F8000009D8B482EF00F084EF00F0A5EF00F01B
:10010800C2EC01F0A5EF00F01450196E1A6A1A50EB
:10011800000AD8B492EF00F0A5EF00F01950010AD8
:10012800D8B456EF00F0030AD8B468EF00F0010A1B
:10013800D8B46EEF00F0070AD8B47AEF00F0A5EF54
:1001480000F0EFEC02F01200000EC26E000EC16E5D
:10015800000EBE6E000EC36E000EBF6E000EC06EA7
:10016800070ECA6ECB68C668C768E70EC86EC9684E
:1001780004011869E70E106F0869070E206F2869D7
:100188000069000E196F000E296F000E216F000E16
:10019800096F000E016F000E116F000E0201896FCA
:1001A800000E886F000E876F000E866F000E040128
:1001B800226F000E2A6F000E026F000E0A6F180ED3
:1001C800126F000E1A6F03690B6913691B69070E1A
:1001D800236F2B6904690C6914691C690F0E246F5D
:1001E8002C69140E0201706F370E146F380E156FDC
:1001F800130E716F1200FAC41BF5FBC41CF5A5A6FB
:1002080008EF01F00AEF01F020EF01F0B5A60FEFBB
:1002180001F011EF01F020EF01F002D81EEF01F01C
:100228000500FA6E1050FD6E1150FE6E1250FF6EF2
:10023800FA50120050EF01F0A5A025EF01F027EFCA
:1002480001F030EF01F0B5A02CEF01F02EEF01F036
:1002580030EF01F011EF01F0A5A435EF01F037EF11
:1002680001F040EF01F0B5A43CEF01F03EEF01F0E2
:1002780040EF01F011EF01F0A5A245EF01F047EFC3
:1002880001F050EF01F0B5A24CEF01F04EEF01F094
:1002980050EF01F011EF01F01CC5FBF41BC5FAF497
:1002A800110071EC02F0130E84EC02F07F0E7BEC6F
:1002B80002F01E0E1D6E000E1E6E000E1F6EABECC1
:1002C80002F0000E1D6E000E1E6E000E1F6EB2ECC8
:1002D80002F0880E1D6E050E1E6E000E1F6E96EC47
:1002E80002F0A00E1D6E050E1E6E000E1F6EA4EC11
:1002F80002F0B00E1D6E050E1E6E000E1F6EB9ECDC
:1003080002F0000E1D6E000E1E6E000E1F6E9DEC9C
:1003180002F08DEC02F012002FEC02F022EC02F059
:10032800D68E55EC01F0E6EC02F0130AD8A49FEF44
:1003380001F0A1EF01F095EF01F0E0EC02F0E9EC3B
:1003480002F0136E95EF01F00DEF00F00A500B105C
:100358000C10D8B4B2EF01F0B4EF01F0C1EF01F026
:1003680002D8C1EF01F00500FA6E0A50FD6E0B507D
:10037800FE6E0C50FF6EFA50120012000D500E1057
:100388000F10D8B4CAEF01F0CCEF01F0D9EF01F0AB
:1003980002D8D9EF01F00500FA6E0D50FD6E0E502F
:1003A800FE6E0F50FF6EFA50120012000750081030
:1003B8000910D8B4E2EF01F0E4EF01F0F1EF01F039
:1003C80002D8F1EF01F00500FA6E0750FD6E0850F3
:1003D800FE6E0950FF6EFA5012001200000E000166
:1003E800606F000E616F000E636F000E646F000E89
:1003F800656F000E666F000E676F000E686F120063
:1004080001EE01F1170EEE6AE806FDE10401080E9F
:100418005D6F000E5E6F000E5F6F000190EF01F0E0
:10042800630E0001AD6F000EAF6F000EB36F020ECA
:10043800B16F000EB06F000EAC6F1200010E02011A
:10044800946F000E956F000E966F8D69510E876F31
:10045800510E866F1200F8EC02F0F2EC01F022EC7B
:1004680002F0A8EC00F014EC02F01200020199BBB3
:1004780040EF02F043EF02F0010E44EF02F0000EED
:10048800120002019AB54BEF02F04EEF02F0010E96
:100498004FEF02F0000E1200020199B156EF02F080
:1004A80059EF02F0010E5AEF02F0000E120002019D
:1004B80098B961EF02F064EF02F0010E65EF02F007
:1004C800000E1200020198A76CEF02F06FEF02F025
:1004D800010E70EF02F0000E1200020194BF77EFD8
:1004E80002F079EF02F07AEF02F0948F12001D6E9D
:1004F8001D501D240201916F1D501D24936F120081
:100508001D6E1D501D240201906F1D501D24926FF9
:100518001200A584A586A580A58202019B859B87DC
:10052800978112001DC50AF51EC50BF51FC50CF5F0
:1005380012001DC501F51EC502F51FC503F5120001
:100548001DC50DF51EC50EF51FC50FF512001DC5FD
:1005580010F51EC511F51FC512F512001DC504F5CD
:100568001EC505F51FC506F512001DC507F51EC5F4
:1005780008F51FC509F512000201D8908E31120046
:100588001750C8EC02F01200186E18C58CF2120051
:10059800186E18C58DF21200F2EC02F0166E1200F9
:1005A800000E02019A6F1200DCEC02F0156E1200C8
:1005B8000201D8908E311200E3EC02F01200020121
:1005C800959D1200C0EC02F01200ECEC02F0120053
:1005D80002018B51120002019499120002018B5101
:0C05E8001200020199851200D69A120040
:020000040020DA
:10000000FF0FFF0FFF0FFF0FFF0FFF0FFF0FFF0F80
:10001000FF0FFF0FFF0FFF0FFF0FFF0FFF0FFF0F70
:10002000FF0FFF0FFF0FFF0FFF0FFF0FFF0FFF0F60
:10003000FF0FFF0FFF0FFF0FFF0FFF0FFF0FFF0F50
:020000040030CA
:0A000000ECFFF7FF9FFFFFFFFFFF7B
:00000001FF
