:04000000FEEFFFF020
:020000040001F9
:10FD5600016E01C57DF01200A00E00017F6F330E0B
:10FD66007D6F1200CCECFEF0F1ECFEF0BEECFEF086
:10FD7600AFECFEF01200620E0001AD6F000EAF6F29
:10FD8600000EB36F020EB16F000EB06F000EAC6FB7
:10FD96001200000E0001606F000E616F000E636FAF
:10FDA600000E646F000E656F000E666F000E676FC3
:10FDB600000E686F1200340EF66EFF0EF76E010E1F
:10FDC600F86E01EE00F210EEC8F00900F5C4EEF48C
:10FDD600E550E150FAE100013EEFFFF0000EC26E81
:10FDE600000EC16E000EBE6E000EC36E000EBF6E1C
:10FDF600000EC06E070ECA6ECB68C668C768C868B4
:10FE0600C9680401186910690869070E206F286916
:10FE16007F0E006F000E196F000E296F000E216F06
:10FE2600000E096F000E016F000E116F000E020129
:10FE3600896F000E886F000E876F000E866F000EAA
:10FE46000401226F000E2A6F000E026F000E0A6F69
:10FE5600000E126F000E1A6F03690B6913691B6996
:10FE6600070E236F2B6904690C6914691C690F0E50
:10FE7600246F2C691200B5ECFEF0AFECFEF0000E1C
:10FE8600076E000E066E0650ABECFEF0FE0E061870
:10FE96000710D8A451EFFFF053EFFFF087EFFFF004
:10FEA600000E036E000E026E000E056E000E046E4E
:10FEB600D8900434D96E0534DA6E000ED926060EB3
:10FEC600DA22DF50ABECFEF0044A052A05BE75EFD8
:10FED600FFF0055009E1150E045CD8A075EFFFF0A0
:10FEE60077EFFFF05BEFFFF0024A032A03BE85EFD0
:10FEF600FFF0035009E1080E025CD8A085EFFFF081
:10FF060087EFFFF057EFFFF0064A072A07BE94EF88
:10FF1600FFF0075008E10628D8A094EFFFF096EF0F
:10FF2600FFF046EFFFF042EFFFF0FEEFFFF0FE00BE
:10FF3600FA00F600F200EE00EA00E600E500E40052
:10FF4600E300E200E300E400E500E600EA00EE007C
:10FF5600F200F600FA00FE000000000000000000BB
:10FF6600000000000000000000000000000000008B
:10FF7600000000000000000000000000000000007B
:10FF8600000000000000000000000000000000006B
:10FF9600000000000000000000000000000000005B
:10FFA600000000000000000000000000000000004B
:10FFB600000000000000000000000000000000003B
:10FFC600000000000000000000000000000000002B
:10FFD600000000000000000000000000000000001B
:10FFE600000000000000000000000000000000000B
:0AFFF600000000000000DEEFFEF046
:020000040020DA
:10000000FF0FFF0FFF0FFF0FFF0FFF0FFF0FFF0F80
:10001000FF0FFF0FFF0FFF0FFF0FFF0FFF0FFF0F70
:10002000FF0FFF0FFF0FFF0FFF0FFF0FFF0FFF0F60
:10003000FF0FFF0FFF0FFF0FFF0FFF0FFF0FFF0F50
:020000040030CA
:0A000000ECFFF7FF9FFFFFFFFFFF7B
:00000001FF
