:04000000FEEFFFF020
:07260000000040040001008E
:10260800376E000184BF0BEF13F00DEF13F05EEF90
:1026180013F03750050D010EF324F66E260EF42044
:10262800F76E0800F5C484F03750050D010EF32647
:10263800000EF422010EF324F66E260EF420F76E37
:102648000800F5C485F03750050D020EF326000E7C
:10265800F422010EF324F66E260EF420F76E08001D
:10266800F5500309866F3750050D030EF326000E4B
:10267800F422010EF324F66E260EF420F76E0800FD
:10268800F5C489F03750050D040EF326000EF42228
:10269800010EF324F66E260EF420F76E0800F5C43A
:1026A80036F5363A36463646C8503618BF0B361811
:1026B800C86E848F1200000EC26E000EC16E000E2E
:1026C800BE6E000EC36E000EBF6E000EC06E070E0B
:1026D800CA6ECB68C668C768EF0EC86EEF0EC96EC3
:1026E800EF0E0401186F8F0E106F0869070E206F28
:1026F8002869DF0E006F000E196F000E296F000E9B
:10270800216F000E096F000E016F000E116F000E91
:102718000201896F000E886F000E876F000E866FAA
:10272800000E0401226F000E2A6F000E026F000EC9
:102738000A6F000E126F000E1A6F03690B69136996
:102748001B69070E236F2B6904690C6914691C69DE
:102758000F0E246F2C69160E02016A6F050E6C6F3E
:10276800320E156F150E6B6F120050EC14F043EC1F
:1027780014F0C188000E04EC13F0000E396E000E40
:10278800386E1C0E3824D96E050E3920DA6E010E0B
:102798003824E16E050E3920E26EE75017EC14F08C
:1027A800DF6E384A392A395009E11B0E385CD8A047
:1027B800E0EF13F0E2EF13F0C5EF13F059EC14F06B
:1027C800BEEF13F0FEEFFFF06A0EF66E280EF76EFE
:1027D800000EF86E01EE01F110EE1BF00900F5C4D1
:1027E800EEF4E550E150FAE101EE1CF11A0EEE6A42
:1027F800E806FDE1000EF86E260EF76E0001B9EF4F
:1028080013F0000E0001606F000E616F000E636F21
:10281800000E646F000E656F000E666F000E676F26
:10282800000E686F1200366E010E0001826F36C509
:1028380081F0B1A022EF14F024EF14F01DEF14F092
:10284800000180511200630E0001AD6F000EAF6FE2
:10285800000EB36F020EB16F000EB06F000EAC6FBA
:10286800120048454C4C4F574F524C444E45574721
:0D287800454E45524154494F4E48465300CD
:10288600000E0001846F400E856F040E866F000EE9
:102896008C6F000E896FC88C120005EC14F05FEC8B
:1028A60013F027EC14F043EC14F012000001849F9F
:0228B60012000E
:020000040001F9
:04FFFC00E8EF13F027
:020000040020DA
:10000000FF0FFF0FFF0FFF0FFF0FFF0FFF0FFF0F80
:10001000FF0FFF0FFF0FFF0FFF0FFF0FFF0FFF0F70
:10002000FF0FFF0FFF0FFF0FFF0FFF0FFF0FFF0F60
:10003000FF0FFF0FFF0FFF0FFF0FFF0FFF0FFF0F50
:020000040030CA
:0A000000ECFFF7FF9FFFFFFFFFFF7B
:00000001FF
