:04000000FEEFFFF020
:020000040001F9
:10FC000012001200120001C520F502C521F503C53E
:10FC100022F5120001C526F502C527F503C528F512
:10FC2000120001C523F502C524F503C525F5120010
:10FC300001C517F502C518F503C519F5120001C570
:10FC40001DF502C51EF503C51FF5120001C51AF505
:0AFC500002C51BF503C51CF51200E8
:10FC5B0048692049276D204D61737465720A00B2A3
:10FC6B00B03AEFFEF03DEFFEF0010E3EEFFEF0007E
:10FC7B000E12006EECFEF0A5ECFFF060ECFEF095C2
:10FC8B00ECFEF0C9ECFEF01200016EB2A250EFFEDA
:10FC9B00F052EFFEF04BEFFEF001C5A3F2120001A4
:10FCAB006EBBA25BEFFEF05DEFFEF056EFFEF001D8
:10FCBB00C5EFF21200620E0001AD6F000EAF6F00C8
:10FCCB000EB36F020EB16F000EB06F000EAC6F1261
:10FCDB0000000E0001606F000E616F000E636F007D
:10FCEB000E646F000E656F000E666F000E676F007F
:10FCFB000E686F12005B0EF66EFC0EF76E010EF8BF
:10FD0B006E01EE29F110EE0FF00900F5C4EEF4E5EB
:10FD1B0050E150FAE1396A386A000150EFFFF00008
:10FD2B000E0201F16F000EF36F000EF56FB00EF7C0
:10FD3B006F800EF86F000EF96F190EFA6F000EFB45
:10FD4B006F000EFC6F000EFD6F000EFE6F000EFFBE
:10FD5B006F000E016E000E026E000E036E1FECFEA6
:10FD6B00F0000E016E000E026E000E036E26ECFE0E
:10FD7B00F0000E016E000E026E000E036E18ECFE0C
:10FD8B00F0000E386E1200000E0201A56F000EA6D9
:10FD9B006F000EA76F000EA86F000EA96F000EAAC2
:10FDAB006FB00EAB6F800EAC6F000EAD6F190EAE59
:10FDBB006F000EAF6F000EB06F000EB16F000EB282
:10FDCB006F000EB36F020E016EFC0E026E010E037E
:10FDDB006E0AECFEF0040E016EFC0E026E010E03B9
:10FDEB006E11ECFEF0000E016EFC0E026E010E03A6
:10FDFB006E03ECFEF0000E396E1200B2A008EFFF9E
:10FE0B00F00AEFFFF003EFFFF0000E396E0201B2C4
:10FE1B00A712EFFFF014EFFFF022EFFFF039820291
:10FE2B00D822EFFFF00500FA6E2650FD6E2750FE2C
:10FE3B006E2850FF6EFA5012000201B2A328EFFF9A
:10FE4B00F02AEFFFF038EFFFF0398402D838EFFFDC
:10FE5B00F00500FA6E2350FD6E2450FE6E2550FF08
:10FE6B006EFA5012003950D8B43EEFFFF040EFFF5E
:10FE7B00F04DEFFFF002D84DEFFFF00500FA6E20CA
:10FE8B0050FD6E2150FE6E2250FF6EFA5012000292
:10FE9B0001A15112003FECFEF0C9ECFEF095ECFE17
:10FEAB00F021EE29F111EE05F10E0EDBC4E3F4E8BF
:10FEBB0006FCE2000E166E000E156E050E1524D90B
:10FECB006E050E1620DA6EDF504AECFEF0050E15AD
:10FEDB0024D96E050E1620DA6E0A0EDE18D8A47918
:10FEEB00EFFFF07BEFFFF094EFFFF035ECFEF0004F
:10FEFB0009D8B483EFFFF085EFFFF094EFFFF00329
:10FF0B00ECFFF0146E145055ECFEF00A0E1418D8DA
:10FF1B00A492EFFFF094EFFFF085EFFFF0154A1678
:10FF2B002A165009E10F0E155CD8A09FEFFFF0A128
:10FF3B00EFFFF063EFFFF05FEFFFF0FEEFFFF0007E
:10FF4B000EC26E000EC16E000EBE6E000EC36E00B2
:10FF5B000EBF6E000EC06E070ECA6EFE0ECB6EC6C7
:10FF6B0068C768FB0EC86EC96804011869F30E10E8
:10FF7B006F0869070E206FFC0E286F0069000E19C1
:10FF8B006F000E296F000E216F000E096F000E011E
:10FF9B006F000E116F000E0201896F000E886F004B
:10FFAB000E876F000E866F000E0401226F000E2A63
:10FFBB006F000E026F000E0A6F000E126F000E1A0A
:10FFCB006F03690B6913691B69070E236F2B690498
:10FFDB00690C6914691C690F0E246F2C69290E02B8
:10FFEB00017A6F200E136F2C0E296F130E726F1286
:05FFFB000080EFFEF0A4
:020000040020DA
:10000000FF0FFF0FFF0FFF0FFF0FFF0FFF0FFF0F80
:10001000FF0FFF0FFF0FFF0FFF0FFF0FFF0FFF0F70
:10002000FF0FFF0FFF0FFF0FFF0FFF0FFF0FFF0F60
:10003000FF0FFF0FFF0FFF0FFF0FFF0FFF0FFF0F50
:020000040030CA
:0A000000ECFFF7FF9FFFFFFFFFFF7B
:00000001FF
