:04000000FEEFFFF020
:020000040001F9
:10FEC80000019AEFFFF0016E01C57DF01200A00E4F
:10FED80000017F6F330E7D6F120088ECFFF0AFECEE
:10FEE800FFF07AECFFF06BECFFF01200620E0001FD
:10FEF800AD6F000EAF6F000EB36F020EB16F000E44
:10FF0800B06F000EAC6F1200000E0001606F000EA3
:10FF1800616F000E636F000E646F000E656F000E58
:10FF2800666F000E676F000E686F120071ECFFF0CD
:10FF38006BECFFF0000E036E035067ECFFF0030E4E
:10FF4800026E980EE82EFED7022EFCD7032AA0EFE9
:10FF5800FFF0FEEFFFF0000EC26E000EC16E000E45
:10FF6800BE6E000EC36E000EBF6E000EC06E070E92
:10FF7800CA6ECB68FB0EC66EC768C868C96804013C
:10FF8800186910697F0E086F070E206F2869770EB1
:10FF9800006F000E196F000E296F000E216F000E02
:10FFA800096F040E016F000E116F000E0201896FB8
:10FFB800000E886F000E876F000E866F000E04011A
:10FFC800226F000E2A6F000E026F000E0A6F000EDD
:10FFD800126F000E1A6F03690B6913691B69070E0C
:10FFE800236F2B6904690C6914691C690F0E246F4F
:08FFF8002C69120064EFFFF018
:020000040020DA
:10000000FF0FFF0FFF0FFF0FFF0FFF0FFF0FFF0F80
:10001000FF0FFF0FFF0FFF0FFF0FFF0FFF0FFF0F70
:10002000FF0FFF0FFF0FFF0FFF0FFF0FFF0FFF0F60
:10003000FF0FFF0FFF0FFF0FFF0FFF0FFF0FFF0F50
:020000040030CA
:0A000000ECFFF7FF9FFFFFFFFFFF7B
:00000001FF
