:04000000FEEFFFF020
:020000040001F9
:10FBFA0012001200120001C52EF502C52FF503C529
:10FC0A0030F5120001C534F502C535F503C536F5E0
:10FC1A00120001C531F502C532F503C533F51200EC
:10FC2A0001C525F502C526F503C527F5120001C54C
:10FC3A002BF502C52CF503C52DF5120001C528F5D3
:0AFC4A0002C529F503C52AF51200D2
:10FC550048492049274D204D41535445520A0061DA
:10FC6500ECFEF043ECFFF053ECFEF088ECFEF0BC4C
:10FC7500ECFEF01200016EB2A243EFFEF045EFFE7E
:10FC8500F03EEFFEF001C5A3F21200016EBBA24EDD
:10FC9500EFFEF050EFFEF049EFFEF001C5EFF21276
:10FCA50000620E0001AD6F000EAF6F000EB36F0264
:10FCB5000EB16F000EB06F000EAC6F1200000E009B
:10FCC50001606F000E616F000E636F000E646F00C0
:10FCD5000E656F000E666F000E676F000E686F127F
:10FCE50000550EF66EFC0EF76E010EF86E01EE373E
:10FCF500F110EE0FF00900F5C4EEF4E550E150FA0D
:10FD0500E1476A466A00019CEFFFF0000E0201F12F
:10FD15006F000EF36F000EF56FB00EF76F800EF8E3
:10FD25006F000EF96F190EFA6F000EFB6F000EFCD7
:10FD35006F000EFD6F000EFE6F000EFF6F000E01CF
:10FD45006E000E026E000E036E1CECFEF0000E013E
:10FD55006E000E026E000E036E23ECFEF0000E0127
:10FD65006E000E026E000E036E15ECFEF0000E46E0
:10FD75006E1200000E0201A56F000EA66F000EA701
:10FD85006F000EA86F000EA96F000EAA6FB00EAB24
:10FD95006F800EAC6F000EAD6F190EAE6F000EAF1B
:10FDA5006F000EB06F000EB16F000EB26F000EB394
:10FDB5006FFC0E016EFB0E026E010E036E07ECFE6C
:10FDC500F0FE0E016EFB0E026E010E036E0EECFED2
:10FDD500F0FA0E016EFB0E026E010E036E00ECFED4
:10FDE500F0000E476E1200B2A0FBEFFEF0FDEFFE35
:10FDF500F0F6EFFEF0000E476E0201B2A705EFFF29
:10FE0500F007EFFFF015EFFFF0478202D815EFFF7F
:10FE1500F00500FA6E3450FD6E3550FE6E3650FF1B
:10FE25006EFA5012000201B2A31BEFFFF01DEFFFA7
:10FE3500F02BEFFFF0478402D82BEFFFF00500FA17
:10FE45006E3150FD6E3250FE6E3350FF6EFA501219
:10FE5500004750D8B431EFFFF033EFFFF040EFFF2C
:10FE6500F002D840EFFFF00500FA6E2E50FD6E2F20
:10FE750050FE6E3050FF6EFA5012000201A1511271
:10FE850000000EC26E000EC16E000EBE6E000EC3E7
:10FE95006E000EBF6E000EC06E070ECA6EFE0ECB54
:10FEA5006EC668C768FB0EC86EC96804011869F399
:10FEB5000E106F0869070E206FFC0E286F00690091
:10FEC5000E196F000E296F000E216F000E096F00CD
:10FED5000E016F000E116F000E0201896F000E8872
:10FEE5006F000E876F000E866F000E0401226F00F3
:10FEF5000E2A6F000E026F000E0A6F000E126F00C1
:10FF05000E1A6F03690B6913691B69070E236F2BA3
:10FF15006904690C6914691C690F0E246F2C692921
:10FF25000E02017A6F200E136F2C0E296F130E72BD
:10FF35006F120032ECFEF0BCECFEF088ECFEF02116
:10FF4500EE37F111EE05F10E0EDBC4E3F4E806FC25
:10FF5500E2000E226E000E216E050E2124D96E05DB
:10FF65000E2220DA6EDF503DECFEF0050E2124D97D
:10FF75006E050E2220DA6E0A0EDE18D8A4C5EFFF34
:10FF8500F0C7EFFFF0EDEFFFF0000E246E000E233B
:10FF95006E140E2324D96E050E2420DA6EF6ECFEBF
:10FFA500F0DF6E140E2324D96E050E2420DA6EDFE1
:10FFB5005048ECFEF0234A242A24BEEBEFFFF02440
:10FFC5005009E10D0E235CD8A0EBEFFFF0EDEFFF3C
:10FFD500F0CBEFFFF0214A222A225009E10F0E2132
:10FFE5005CD8A0F8EFFFF0FAEFFFF0AFEFFFF0AB52
:0BFFF500EFFFF0FEEFFFF073EFFEF0F7
:020000040020DA
:10000000FF0FFF0FFF0FFF0FFF0FFF0FFF0FFF0F80
:10001000FF0FFF0FFF0FFF0FFF0FFF0FFF0FFF0F70
:10002000FF0FFF0FFF0FFF0FFF0FFF0FFF0FFF0F60
:10003000FF0FFF0FFF0FFF0FFF0FFF0FFF0FFF0F50
:020000040030CA
:0A000000ECFFF7FF9FFFFFFFFFFF7B
:00000001FF
