:040000000DEF00F010
:040008009FEF13F063
:06001800FF00F3EF15F0FC
:1026000000000000000000000000000000000000CA
:1026100000000000000000000000000000000000BA
:1026200000000000000000000000000000000000AA
:102630000000000000000000000002400000000058
:10264000000EC26E000EC16E000EBE6E000EC36E96
:10265000100EBF6E000EC06E010ECA6E320ECB6E33
:10266000FB0EC66EF90EC76E2F0EC86EAC0EC96E8D
:10267000130E0401186F830E106FC90E086F000E41
:10268000206F000E286FEE0E006F000E196F000E07
:10269000296F000E216F100E096F000E016F000EE2
:1026A000116F000E0201896F000E886F000E876F98
:1026B000000E866F000E0401226F000E2A6F000EBE
:1026C000026F060E0A6F100E126F000E1A6F03696A
:1026D0000B6913691B69070E236F2B6904690C6969
:1026E00014691C690F0E246F2C691F0E0201746F90
:1026F000000E3E6F320E156F2D0E406F1D0E3F6F98
:10270000200E296F290E726F230E1F6F040E416F6A
:10271000090E716F160E6A6F200E576F0A0E706FDA
:10272000370E0A6F380E0B6F1A0E196F1C0E1A6FC8
:10273000310E176F180E186F150E6B6F1200FAC45A
:1027400057F5FBC458F59FA0A8EF13F0AAEF13F0BC
:10275000B5EF13F0AFA0AFEF13F0B1EF13F0B5EF9B
:1027600013F0BDEC16F0D9EF13F0A4A0BAEF13F0FC
:10277000BCEF13F0C7EF13F0B4A0C1EF13F0C3EF39
:1027800013F0C7EF13F0B9EC16F0D9EF13F0A8A0CF
:10279000CCEF13F0CEEF13F0D9EF13F0B8A0D3EFD6
:1027A00013F0D5EF13F0D9EF13F0B5EC16F0D9EF25
:1027B00013F058C5FBF457C5FAF41100000E7E6EF5
:1027C000020E7F6E000E806EE70E816E030E826E2B
:1027D000000E836E000E846E000E856E000E866EF7
:1027E000000E886EF40E896E010E8A6EF40E8B6EEA
:1027F000010E8C6EB59CB59E85908592A59EA59C7C
:10280000000E596E000E5A6E000E5B6E59EC16F0FB
:10281000000E596E000E5A6E000E5B6E52EC16F0F2
:10282000000E596E000E5A6E000E5B6E60EC16F0D4
:10283000800E876E1200000E6F6E020E706E000E1C
:10284000716EE70E726E030E736E000E746E000EE4
:10285000756E000E766E000E776E000E796EF40EB9
:102860007A6E010E7B6EF40E7C6E010E7D6EB39C53
:10287000B39E76907692A39EA39C000E596E000E96
:102880005A6E000E5B6E6EEC16F0000E596E000E66
:102890005A6E000E5B6E67EC16F0000E596E000E5D
:1028A0005A6E000E5B6E75EC16F0800E786E12009C
:1028B000000E606E020E616E000E626EE70E636EB9
:1028C000030E646E000E656E000E666E000E676E7F
:1028D000000E686E000E6A6EF40E6B6E010E6C6E6A
:1028E000F40E6D6E010E6E6EB29CB29E6790679292
:1028F000A29EA29C000E596E000E5A6E000E5B6ED8
:1029000083EC16F0000E596E000E5A6E000E5B6ED0
:102910007CEC16F0000E596E000E5A6E000E5B6EC7
:102920008AEC16F0800E696E1200000E0201A56F8F
:10293000000EA66F000EA76F000EA86F000EA96F05
:10294000000EAA6FB00EAB6F800EAC6F000EAD6FB5
:10295000190EAE6F000EAF6F000EB06F000EB16FAC
:10296000000EB26F000EB36F000E596E000E5A6E5D
:10297000000E5B6E44EC16F0000E596E000E5A6E9F
:10298000000E5B6E3DEC16F0000E596E000E5A6E96
:10299000000E5B6E4BEC16F0000E2C6E1200000E5B
:1029A0000201B86F000EBA6F000EBC6FB00EBE6FA2
:1029B000800EBF6F000EC06F190EC16F000EC26F88
:1029C000000EC36F000EC46F000EC56F000EC66F01
:1029D000000E596E000E5A6E000E5B6E2FEC16F054
:1029E000000E596E000E5A6E000E5B6E28EC16F04B
:1029F000000E596E000E5A6E000E5B6E36EC16F02D
:102A0000000E2B6E1200000E0301D96F000EDA6F5C
:102A1000000EDB6F000EDC6F000EDF6F000EE06F4C
:102A2000000EE56F000EE76F000EEC6F000EEE6F0C
:102A3000000EEF6F000EF06F000EF16F000EF26FE0
:102A4000000EF46F100EF56F000EF66F000EF76FAC
:102A5000000EF86F000EF96F000EFA6F840EF36F20
:102A60001200AF90D680900E596E2D0E5A6E000E49
:102A70005B6E9FEC16F09F80B490D6828E0E596EDE
:102A80002D0E5A6E000E5B6E98EC16F0A480B89076
:102A9000D6848C0E596E2D0E5A6E000E5B6E91EC24
:102AA00016F0A8801200C4EC16F0D0EC15F0E2ECA1
:102AB00015F020EC13F003EC16F003EC15F031ECFC
:102AC00015F01EEC16F0A6EC16F095EC14F0CFEC19
:102AD00014F011EC16F01BEC14F0DEEC13F058ECD3
:102AE00014F01200455046104710D8B47AEF15F094
:102AF0007CEF15F089EF15F002D889EF15F005008D
:102B0000FA6E4550FD6E4650FE6E4750FF6EFA500D
:102B100012001200485049104A10D8B492EF15F034
:102B200094EF15F0A1EF15F002D8A1EF15F0050014
:102B3000FA6E4850FD6E4950FE6E4A50FF6EFA50D4
:102B4000120012004B504C104D10D8B4AAEF15F0E3
:102B5000ACEF15F0B9EF15F002D8B9EF15F005009C
:102B6000FA6E4B50FD6E4C50FE6E4D50FF6EFA509B
:102B70001200120053EC15F0C1EC16F0000E5D6E61
:102B80005D50ACEC16F0090E5C6E1C0EE82EFED704
:102B90005C2EFCD700D05D2AC0EF15F00DEF00F0E1
:102BA000000E0001606F000E616F000E636F000E7B
:102BB000646F000E656F000E666F000E676F000E8B
:102BC000686F1200040E0201946F800E956F180E4C
:102BD000966F030E9C6F000E9A6F000E9B6F000E97
:102BE000976F8D69120001EE01F12C0EEE6AE80676
:102BF000FDE10401080E5D6F000E5E6F000E5F6F59
:102C00000001BAEF15F0620E0001AD6F000EAF6F5C
:102C1000000EB36F020EB16F000EB06F000EAC6FFE
:102C20001200020E0001846F400E856F000E866F49
:102C3000000E8C6F000E896FC89C1200000E0301FD
:102C40001B6F1969000E186FB19E800E1A6F12006B
:102C500059C563F55AC564F55BC565F5120059C5DC
:102C600066F55AC567F55BC568F5120059C560F58C
:102C70005AC561F55BC562F5120059C52DF55AC5F7
:102C80002EF55BC52FF5120059C530F55AC531F543
:102C90005BC532F5120059C569F55AC56AF55BC5C1
:102CA0006BF5120059C53FF55AC540F55BC541F5B6
:102CB000120059C542F55AC543F55BC544F51200EB
:102CC00059C53CF55AC53DF55BC53EF5120059C5E1
:102CD00036F55AC537F55BC538F5120059C539F5D3
:102CE0005AC53AF55BC53BF5120059C533F55AC5CF
:102CF00034F55BC535F5120059C551F55AC552F585
:102D00005BC553F5120059C554F55AC555F55BC559
:102D100056F5120059C54EF55AC54FF55BC550F52D
:102D2000120059C545F55AC546F55BC547F5120071
:102D300059C548F55AC549F55BC54AF5120059C54C
:102D40004BF55AC54CF55BC54DF51200A00E0001C0
:102D50007F6F330E7D6F12005A6E5A50B1EC16F031
:102D60001200596E59C57DF01200B89072EC15F042
:102D70001200B4908AEC15F01200AF90A2EC15F09E
:102D80001200A6EC16F01200D69A120012001200E1
:022D900012002F
:020000040020DA
:10000000FF0FFF0FFF0FFF0FFF0FFF0FFF0FFF0F80
:10001000FF0FFF0FFF0FFF0FFF0FFF0FFF0FFF0F70
:10002000FF0FFF0FFF0FFF0FFF0FFF0FFF0FFF0F60
:10003000FF0FFF0FFF0FFF0FFF0FFF0FFF0FFF0F50
:020000040030CA
:0A000000ECFFF7FF9FFFFFFFFFFF7B
:00000001FF
