:04000000FEEFFFF020
:020000040001F9
:10FCF800698E120069841200788E120078841200CE
:10FD080000016AEFFFF013C56BF414506C6E12001B
:10FD180013C563F41450646E120013C57AF41450BA
:10FD28007B6E120013C572F41450736E120013C563
:10FD380001F514C502F515C503F5120013C507F53D
:10FD480014C508F515C509F5120013C504F514C541
:10FD580005F515C506F5120013C50AF514C50BF50A
:10FD680015C50CF5120013C510F514C511F515C508
:10FD780012F5120013C50DF514C50EF515C50FF5CE
:10FD88001200DEECFEF0A8ECFFF0D0ECFEF02DEC5B
:10FD9800FFF0F0ECFEF01200620E0001AD6F000EF5
:10FDA800AF6F000EB36F020EB16F000EB06F000E92
:10FDB800AC6F1200000E0001606F000E616F000E44
:10FDC800636F000E646F000E656F000E666F000EA5
:10FDD800676F000E686F1200000E606E020E616E93
:10FDE800000E626EE70E636E030E646E000E656EA3
:10FDF800000E666E000E676E000E686E000E6A6E6C
:10FE0800F40E6B6E010E6C6EF40E6D6E010E6E6E5E
:10FE1800B29CB29E67906792A29EA29C000E136E3F
:10FE2800000E146E000E156EA2ECFEF0000E136E9E
:10FE3800000E146E000E156EA9ECFEF0000E136E87
:10FE4800000E146E000E156E9BECFEF0800E696EAF
:10FE58001200000E6F6E020E706E000E716EE70ECD
:10FE6800726E030E736E000E746E000E756E000EC9
:10FE7800766E000E776E000E796EF40E7A6E010EB5
:10FE88007B6EF40E7C6E010E7D6EB39CB39E7690F5
:10FE98007692A39EA39C000E136E000E146E000EA5
:10FEA800156EB7ECFEF0000E136E000E146E000E09
:10FEB800156EBEECFEF0000E136E000E146E000EF2
:10FEC800156EB0ECFEF0800E786E1200C5ECFEF0F8
:10FED800F0ECFEF02DECFFF0030E1C6EE80E1B6E2E
:10FEE800010E186EF40E176E000E1A6EC80E196EFB
:10FEF8007CECFEF01BC513F51CC514F58CECFEF06C
:10FF080017C513F518C514F587ECFEF07EECFEF066
:10FF1800310E166EB20EE82EFED7162EFCD700D084
:10FF280080ECFEF01BC513F51CC514F596ECFEF02D
:10FF380019C513F51AC514F591ECFEF082ECFEF024
:10FF48007CEFFFF0FEEFFFF0000EC26E000EC16EF8
:10FF5800000EBE6E000EC36E000EBF6E000EC06EA9
:10FF6800070ECA6ECB68C668FE0EC76EFE0EC86E58
:10FF7800C96804011869FB0E106F0869070E206F25
:10FF880028690069000E196F000E296F000E216F95
:10FF9800000E096F000E016F000E116F000E0201B6
:10FFA800896F000E886F000E876F000E866F000E37
:10FFB8000401226F000E2A6F000E026F000E0A6FF6
:10FFC800000E126F000E1A6F03690B6913691B6923
:10FFD800070E236F2B6904690C6914691C690F0EDD
:10FFE800246F2C69180E0201116F120E576F1A0E2A
:08FFF800096F120084EFFEF016
:020000040020DA
:10000000FF0FFF0FFF0FFF0FFF0FFF0FFF0FFF0F80
:10001000FF0FFF0FFF0FFF0FFF0FFF0FFF0FFF0F70
:10002000FF0FFF0FFF0FFF0FFF0FFF0FFF0FFF0F60
:10003000FF0FFF0FFF0FFF0FFF0FFF0FFF0FFF0F50
:020000040030CA
:0A000000ECFFF7FF9FFFFFFFFFFF7B
:00000001FF
