:04000000FEEFFFF020
:020000040001F9
:10FCD400120012001200196A186A0001D2EFFEF035
:10FCE40013C501F514C502F515C503F5120013C5B6
:10FCF40007F514C508F515C509F5120013C504F573
:10FD040014C505F515C506F5120013C50AF514C585
:10FD14000BF515C50CF5120013C510F514C511F536
:10FD240015C512F5120013C50DF514C50EF515C54C
:10FD34000FF51200C0ECFEF0A5ECFFF0B2ECFEF003
:10FD44001EECFFF0EAECFEF01200136EB2A2ADEF6F
:10FD5400FEF0AFEFFEF0A8EFFEF013C5A3F2120021
:10FD6400620E0001AD6F000EAF6F000EB36F020E96
:10FD7400B16F000EB06F000EAC6F1200000E0001E8
:10FD8400606F000E616F000E636F000E646F000EF3
:10FD9400656F000E666F000E676F000E686F1200CD
:10FDA4009CECFEF0EAECFEF01EECFFF058ECFFF0E9
:10FDB400176E1750A7ECFEF0110E166E3A0EE82ED1
:10FDC400FED7162EFCD700D0D8EFFEF0FEEFFFF0E2
:10FDD400000E0201CB6F000ECD6F000ECF6FB00E80
:10FDE400D16F800ED26F000ED36F190ED46F000E38
:10FDF400D56F000ED66F000ED76F000ED86F000EB1
:10FE0400D96FD60E136EFC0E146E010E156E8EECA9
:10FE1400FEF0D80E136EFC0E146E010E156E95ECEA
:10FE2400FEF0D40E136EFC0E146E010E156E87ECEC
:10FE3400FEF0000E196E1200000E0201A56F000EF6
:10FE4400A66F000EA76F000EA86F000EA96F000E1C
:10FE5400AA6FB00EAB6F800EAC6F000EAD6F190EB3
:10FE6400AE6F000EAF6F000EB06F000EB16F000EDC
:10FE7400B26F000EB36F000E136E000E146E000E00
:10FE8400156E79ECFEF0000E136E000E146E000E6B
:10FE9400156E80ECFEF0000E136E000E146E000E54
:10FEA400156E72ECFEF0000E186E1200B7A05DEF36
:10FEB400FFF05FEFFFF058EFFFF0000E196E020144
:10FEC400D8A767EFFFF069EFFFF077EFFFF0198233
:10FED40002D877EFFFF00500FA6E1050FD6E115056
:10FEE400FE6E1250FF6EFA5012000201D8A37DEF8D
:10FEF400FFF07FEFFFF08DEFFFF0198402D88DEF54
:10FF0400FFF00500FA6E0D50FD6E0E50FE6E0F50A0
:10FF1400FF6EFA5012001950D8B493EFFFF095EF2A
:10FF2400FFF0A2EFFFF002D8A2EFFFF00500FA6E97
:10FF34000A50FD6E0B50FE6E0C50FF6EFA5012000C
:10FF44000201C7511200000EC26E000EC16E000EF7
:10FF5400BE6E000EC36E000EBF6E000EC06E070EA6
:10FF6400CA6EFE0ECB6EF70EC66EC768C868C96847
:10FF74000401186910690869070E206FFD0E286FC7
:10FF8400E70E006F000E196F000E296F000E216F2F
:10FF9400000E096F000E016F000E116F000E0201BA
:10FFA400896F000E886F000E876F000E866F000E3B
:10FFB4000401226F000E2A6F000E026F000E0A6FFA
:10FFC400000E126F000E1A6F03690B6913691B6927
:10FFD400070E236F2B6904690C6914691C690F0EE1
:10FFE400246F2C69260E0201046F200E296F040E63
:0CFFF400766F290E726F12006DEFFEF0A8
:020000040020DA
:10000000FF0FFF0FFF0FFF0FFF0FFF0FFF0FFF0F80
:10001000FF0FFF0FFF0FFF0FFF0FFF0FFF0FFF0F70
:10002000FF0FFF0FFF0FFF0FFF0FFF0FFF0FFF0F60
:10003000FF0FFF0FFF0FFF0FFF0FFF0FFF0FFF0F50
:020000040030CA
:0A000000ECFFF7FF9FFFFFFFFFFF7B
:00000001FF
