:04000000FEEFFFF020
:1026000000BE31003E2F005631003C26004A290012
:102610005E2A00AC2800A631005232004E320092F1
:102620002F00EA3100F23100983100E231008A31A6
:0B263000004C2B00D82A007C31000079
:10263C0074EC18F00009D8B426EF13F028EF13F05F
:10264C0064EF13F035EF13F0D3EC18F0ADEF13F09B
:10265C0029EC19F0ADEF13F0000EADEF13F019C526
:10266C004AF51AC54BF521EE0AF102D848EF13F0E2
:10267C000500FA6EDE50FD6EDE50FE6EDE50FF6E13
:10268C00FA5012004C6E4D6A4D50000AD8B451EFFE
:10269C0013F032EF13F04C50010AD8B432EF13F0B0
:1026AC00030AD8B42AEF13F0010AD8B42EEF13F0B2
:1026BC00070AD8B432EF13F032EF13F069EC18F0CC
:1026CC000009D8B46CEF13F06EEF13F0ACEF13F00D
:1026DC002A50030B0009D8B476EF13F078EF13F0FF
:1026EC0084EF13F0010E4C6E2A50030B4D6E4C50C0
:1026FC004D5E2A504D18FC0B4D182A6E24C5D9F48A
:10270C0025C5DAF4DF50506E244A252A2606D8A0B7
:10271C00270626502710D8A496EF13F098EF13F045
:10272C00A0EF13F02FEC15F04C6E4C504E6E4F6A20
:10273C00A4EF13F0000E4F6E030E4E6E4EC551F506
:10274C005050FDEC18F05150ADEF13F0030E120089
:10275C00000EC26E000EC16E000EBE6E000EC36E79
:10276C00000EBF6E000EC06E070ECA6ECB68C66838
:10277C00C768E70EC86EC96804011869E70E106FC8
:10278C000869070E206F28690069000E196F000E8A
:10279C00296F000E216F000E096F000E016F000EE5
:1027AC00116F000E0201896F000E886F000E876F8B
:1027BC00000E866F000E0401226F000E2A6F000EB1
:1027CC00026F000E0A6F180E126F000E1A6F03695B
:1027DC000B6913691B69070E236F2B6904690C695C
:1027EC0014691C690F0E246F2C69140E0201706F92
:1027FC00370E146F380E156F130E716F12003F6E7B
:10280C00010E406E2AB60DEF14F00FEF14F054EFDA
:10281C0014F03FC523F52A942A86FC0E2A160F0EB7
:10282C00286E010E226EF40E216E2A885A0E016E4D
:10283C00320E026E000E036E000E136E000E146E3E
:10284C005A0E046E320E056E000E066E000E156EDC
:10285C00000E166E5A0E076E320E086E000E096EC2
:10286C00000E176E000E186E5A0E0A6E320E0B6E9C
:10287C00000E0C6E000E196E000E1A6E560E0D6EBA
:10288C00320E0E6E000E0F6E000E1B6E000E1C6EC6
:10289C0005EC19F08AEC17F0000E406E4050120057
:1028AC002A8877EF14F018EC19F0080EA4EF14F046
:1028BC0018EC19F0070EA4EF14F0262801EC19F00F
:1028CC00040EA4EF14F0070E2818D8B470EF14F00F
:1028DC0072EF14F074EF14F01BEC19F00F0EA4EF60
:1028EC0014F013C54AF514C54BF502D888EF14F053
:1028FC000500FA6E0150FD6E0250FE6E0350FF6E25
:10290C00FA5012004C6E4D6A4D50000AD8B491EF3B
:10291C0014F069EF14F04C50010AD8B469EF14F0BC
:10292C00030AD8B45EEF14F0010AD8B459EF14F0CE
:10293C00070AD8B463EF14F069EF14F012007FECBF
:10294C0018F00009D8A4ADEF14F0AFEF14F0B2EF0B
:10295C0014F0040EECEF14F02A50030B0009D8B459
:10296C00BAEF14F0BCEF14F0C8EF14F0010E4E6E79
:10297C002A50030B4F6E4E504F5E2A504F18FC0BD3
:10298C004F182A6E2606D8A0270626502710D8B432
:10299C00D2EF14F0D4EF14F0DFEF14F015EC19F0C3
:1029AC0024C5D9F425C5DAF4DF6E244A252AAFEF05
:1029BC0014F056EC14F0506E15EC19F024C5D9F443
:1029CC0025C5DAF4DF6E244A252A50501200446ED5
:1029DC003F5040104110D8B4F6EF14F0F8EF14F05B
:1029EC0014EF15F04450030D010EF324D96E050EAF
:1029FC00F420DA6E3FC5DEF440C5DEF441C5DEF4EA
:102A0C004450020D130EF324D96E050EF420DA6E29
:102A1C0042C5DEF443C5DDF42EEF15F04450030D32
:102A2C00010EF324D96E050EF420DA6E5A0EDE6E0A
:102A3C00320EDE6E000EDE6E4450020D130EF324C9
:102A4C00D96E050EF420DA6E000EDE6E000EDD6E11
:102A5C0012002A8842EF15F018EC19F0070E6BEFF4
:102A6C0015F0262801EC19F0030E6BEF15F01BEC9A
:102A7C0019F00A0E6BEF15F013C54AF514C54BF59A
:102A8C0002D853EF15F00500FA6E0150FD6E02509E
:102A9C00FE6E0350FF6EFA5012004C6E4D6A4D5094
:102AAC00000AD8B45CEF15F03DEF15F04C50010A5C
:102ABC00D8B43DEF15F0030AD8B432EF15F0060A7E
:102ACC00D8B437EF15F03DEF15F0120005EC19F006
:102ADC00020E296E7EEF15F0D3EC18F0A5EF15F071
:102AEC0029EC19F0A5EF15F0C5EC18F0A5EF15F0D1
:102AFC0015C54AF516C54BF521EE04F102D891EF38
:102B0C0015F00500FA6EDE50FD6EDE50FE6EDE50E6
:102B1C00FF6EFA5012004C6E4D6A4D50000AD8B43C
:102B2C009AEF15F07AEF15F04C50020AD8B472EF08
:102B3C0015F0010AD8B476EF15F07AEF15F0120003
:102B4C00FC0E2A16020E296E2A94B4EF15F027EC0F
:102B5C0019F0DBEF15F00F0EDBEF15F017C54AF58A
:102B6C0018C54BF521EE07F102D8C7EF15F005009B
:102B7C00FA6EDE50FD6EDE50FE6EDE50FF6EFA50C9
:102B8C0012004C6E4D6A4D50000AD8B4D0EF15F0BF
:102B9C00B1EF15F04C50020AD8B4ADEF15F0010AA4
:102BAC00D8B4ADEF15F0B1EF15F0120096EC16F0AD
:102BBC002A50030B0009D8B4E6EF15F0E8EF15F036
:102BCC00F4EF15F074EC18F00009D8B4F0EF15F030
:102BDC00F2EF15F0F4EF15F0100E286E2850030DDF
:102BEC00010EF324F66E260EF420F76EF86A000E32
:102BFC00F82202D80FEF16F00500FA6E0900F55016
:102C0C00FD6E0900F550FE6E0900F550FF6EFA508E
:102C1C001200286E1200586E585005EC14F0000982
:102C2C00D8B41BEF16F01DEF16F012EF16F054C5CA
:102C3C003FF555C540F556C541F557C542F512EC63
:102C4C0018F0000E456E000E466E000E476E000E1C
:102C5C00486E000E496E31EC18F0E9EC18F0B4EC4B
:102C6C0017F0E806D8B43DEF16F03FEF16F035EF4D
:102C7C0016F01200B5A245EF16F047EF16F049EF2B
:102C8C0016F06CEF16F0B5A04EEF16F050EF16F0F4
:102C9C0052EF16F06CEF16F002019AA558EF16F0F1
:102CAC005AEF16F05CEF16F06CEF16F09AAF61EF7E
:102CBC0016F063EF16F065EF16F06CEF16F097A9AF
:102CCC006AEF16F06CEF16F040EF16F01200B5EC50
:102CDC0018F02C0E05EC14F05A0E546E050E556EB1
:102CEC00000E576E010E566E2C0E11EC16F0210EC6
:102CFC00596E760EE82EFED7592EFCD700D02B0E2F
:102D0C00546E050E556E000E576E140E566E2C0E2C
:102D1C00E5EC16F0B4EC17F06FEF16F0FEEFFFF0E9
:102D2C00A0EC18F00009D8B49EEF16F0A0EF16F046
:102D3C00A4EF16F024EC19F0BEEF16F08AEC18F0A4
:102D4C000009D8B4ACEF16F0AEEF16F0B2EF16F0F7
:102D5C001EEC19F0BEEF16F095EC18F00009D8B483
:102D6C00BAEF16F0BCEF16F0BEEF16F021EC19F02E
:102D7C001200526E010E536E2AB4C7EF16F0C9EF53
:102D8C0016F0E3EF16F02A84000E536E265001EC79
:102D9C0019F05250D8B4D5EF16F0D7EF16F0DDEF8E
:102DAC0016F0040E286E9FEC17F0E1EF16F0030EF0
:102DBC00286EABEC18F03FEC18F053501200586E24
:102DCC00585005EC14F00009D8B4EFEF16F0F1EF01
:102DDC0016F0E6EF16F054C53FF555C540F556C54F
:102DEC0041F557C542F512EC18F0EDEC18F0B4ECC7
:102DFC0017F0E806D8B405EF17F007EF17F0FDEF62
:102E0C0016F0120020EE02F04A50D9264B50DA226E
:102E1C00DEC43FF5DDC440F54AC5D9F44BC5DAF440
:102E2C00DEC441F5DDC442F512EC18F0000E456E1F
:102E3C00000E466E000E476E000E486E000E496E78
:102E4C004DEC18F0020E12004AC53FF54BC540F58B
:102E5C00000E426E010E416E12EC18F0000E456E23
:102E6C00000E466E000E476E000E486E000E496E48
:102E7C004DEC18F0040E12004AC53FF54BC540F559
:102E8C00000E426E020E416E12EC18F0000E456EF2
:102E9C00000E466E000E476E000E486E000E496E18
:102EAC004DEC18F0020E12004AC53FF54BC540F52B
:102EBC00000E426E010E416E12EC18F0000E456EC3
:102ECC00000E466E000E476E000E486E000E496EE8
:102EDC004DEC18F0020E12004AC53FF54BC540F5FB
:102EEC00000E426E020E416E12EC18F0000E456E92
:102EFC00000E466E000E476E000E486E000E496EB8
:102F0C004DEC18F0040E1200020194BF90EF17F074
:102F1C0092EF17F09EEF17F0000E9A6F000E9B6F5A
:102F2C00000E976F8D69510E876F510E866F948FBF
:102F3C0012002A50FC0B02092A6E26042710D8A472
:102F4C00AAEF17F0ACEF17F0AEEF17F056EC14F049
:102F5C00D8802334FDEC18F0040E1200010E3F6EE5
:102F6C002AB4BBEF17F0BDEF17F0C7EF17F02A9696
:102F7C00236805EC19F05BEC18F0D9EC18F029C5B6
:102F8C003FF53F5012000CEC19F009EC19F0000958
:102F9C00D8B4D3EF17F0D5EF17F0DBEF17F0000E26
:102FAC0001EC19F0000EFDEC18F0000E12005E0E94
:102FBC00F66E320EF76E000EF86E0900F5C45AF577
:102FCC0001EE01F13E0EEE6AE806FDE100016DEF47
:102FDC0016F0000E0001606F000E616F000E636F43
:102FEC00000E646F000E656F000E666F000E676F4B
:102FFC00000E686F1200040E0201946F800E956F24
:10300C00180E966F030E9C6F000E9A6F000E9B6F3E
:10301C00000E976F8D6912002AA817EF18F019EFA0
:10302C0018F022EF18F03FC524F540C525F541C531
:10303C0026F542C527F52A981200620E0001AD6FE5
:10304C00000EAF6F000EB36F020EB16F000EB06FBB
:10305C00000EAC6F120045C53FF546C540F547C59F
:10306C0041F548C542F549C543F5020EEDEC14F0A7
:10307C00120045EF18F040EC16F0DCEC15F02AB419
:10308C004AEF18F04CEF18F041EF18F0120045C55C
:10309C003FF546C540F547C541F548C542F549C51C
:1030AC0043F5000EEDEC14F01200A594A596A59036
:1030BC00A59202019B919B959B9F9B9D9B939793A4
:1030CC00979597911200020199BB6FEF18F072EF70
:1030DC0018F0010E73EF18F0000E1200020195BBF0
:1030EC007AEF18F07DEF18F0010E7EEF18F0000E5D
:1030FC001200020199B185EF18F088EF18F0010E5B
:10310C0089EF18F0000E120002019AB590EF18F03A
:10311C0093EF18F0010E94EF18F0000E120002015C
:10312C0097B99BEF18F09EEF18F0010E9FEF18F077
:10313C00000E120002019ABFA6EF18F0A9EF18F0CA
:10314C00010EAAEF18F0000E12002A50FC0B020917
:10315C002A6E23502324FDEC18F0030E1200EFEC22
:10316C0017F001EC18F0AEEC13F023EC18F0120091
:10317C00E4EC18F02A94020E296E0F0E1200E4EC07
:10318C0018F02A94000E296E0F0E12000FEC19F095
:10319C000CEC19F0DFEC18F01200265001EC19F0D1
:1031AC009FEC17F012000201949F000E9A6F998504
:1031BC0012002A94000E296E0F0E12000201949F29
:1031CC009985948F1200000EBFEC16F01200010EC0
:1031DC00BFEC16F012000FEC19F0090E120012ECF5
:1031EC0019F0040E120012EC19F0030E12003F6ECF
:1031FC003FC58CF212003F6E3FC58DF21200000EDF
:10320C0002019A6F120002018D5112000201949B6F
:10321C0012000201958D12000201959D120002010F
:10322C008B5112000201948D12000201949D120028
:10323C0002019A95120002019799120002019A9FBD
:10324C001200010E1200020E1200050E1200010EE9
:03325C0012004419
:020000040001F9
:04FFFC00DDEF17F02E
:020000040020DA
:10000000FF0FFF0FFF0FFF0FFF0FFF0FFF0FFF0F80
:10001000FF0FFF0FFF0FFF0FFF0FFF0FFF0FFF0F70
:10002000FF0FFF0FFF0FFF0FFF0FFF0FFF0FFF0F60
:10003000FF0FFF0FFF0FFF0FFF0FFF0FFF0FFF0F50
:020000040030CA
:0A000000ECFFF7FF9FFFFFFFFFFF7B
:00000001FF
