:04000000FEEFFFF020
:020000040001F9
:10FEE80000018CEFFFF09DECFFF0AFECFFF07EEC33
:10FEF800FFF01200700E0001AD6F000EAF6F000E24
:10FF0800B36F020EB16F000EB06F000EAC6F12002F
:10FF180077ECFFF0CFA493EFFFF095EFFFF098EFA9
:10FF2800FFF0BE8A8EEFFFF0BE9A8EEFFFF0FEEF75
:10FF3800FFF0000E0001606F000E616F000E636F2E
:10FF4800000E646F000E656F000E666F000E676F1F
:10FF5800000E686F1200000EC26E000EC16E000E19
:10FF6800BE6E000EC36E040EBF6E000EC06E070E8E
:10FF7800CA6ECB68DF0EC66EC768C868C968040158
:10FF880018691069FB0E086F070E206F28695F0E4D
:10FF9800006F000E196F000E296F000E216F000E02
:10FFA800096F000E016F000E116F000E0201896FBC
:10FFB800000E886F000E876F000E866F000E04011A
:10FFC800226F000E2A6F000E026F000E0A6F000EDD
:10FFD800126F000E1A6F03690B6913691B69070E0C
:10FFE800236F2B6904690C6914691C690F0E246F4F
:08FFF8002C69120074EFFFF008
:020000040020DA
:10000000FF0FFF0FFF0FFF0FFF0FFF0FFF0FFF0F80
:10001000FF0FFF0FFF0FFF0FFF0FFF0FFF0FFF0F70
:10002000FF0FFF0FFF0FFF0FFF0FFF0FFF0FFF0F60
:10003000FF0FFF0FFF0FFF0FFF0FFF0FFF0FFF0F50
:020000040030CA
:0A000000FCFFF7FF9FFFFFFFFFFF6B
:00000001FF
