:04000000FEEFFFF020
:020000040001F9
:10FC160012001200120001C515F502C516F503C53E
:10FC260017F5120001C51BF502C51CF503C51DF528
:10FC3600120001C518F502C519F503C51AF512001B
:10FC460001C51EF502C51FF503C520F5120001C545
:10FC560024F502C525F503C526F5120001C521F5D3
:10FC660002C522F503C523F5120048692049276D10
:10FC760020536C6176650A006EECFEF0A5ECFFF091
:10FC860060ECFEF0DEECFEF0AAECFEF01200016E77
:10FC9600B7A250EFFEF052EFFEF04BEFFEF001C5BB
:10FCA600C9F21200016EBBA25BEFFEF05DEFFEF043
:10FCB60056EFFEF001C5EFF21200620E0001AD6FC5
:10FCC600000EAF6F000EB36F020EB16F000EB06F75
:10FCD600000EAC6F1200000E0001606F000E616F27
:10FCE600000E636F000E646F000E656F000E666F88
:10FCF600000E676F000E686F1200000E016EB7A24D
:10FD060087EFFEF089EFFEF093EFFEF00201D1AB34
:10FD16008FEFFEF091EFFEF093EFFEF0010E016E15
:10FD260001501200700EF66EFC0EF76E010EF86EA4
:10FD360001EE27F110EE0EF00900F5C4EEF4E550E1
:10FD4600E150FAE1366A356A000112EFFFF0000E63
:10FD56000201CB6F000ECD6F000ECF6FB00ED16FCC
:10FD6600800ED26F000ED36F190ED46F000ED56FB2
:10FD7600000ED66F000ED76F000ED86F000ED96F2B
:10FD8600180E016EFC0E026E010E036E15ECFEF0EF
:10FD96001A0E016EFC0E026E010E036E1CECFEF0D6
:10FDA600160E016EFC0E026E010E036E0EECFEF0D8
:10FDB600000E356E1200000E0201F16F000EF36F99
:10FDC600000EF56FB00EF76F800EF86F000EF96F2C
:10FDD600190EFA6F000EFB6F000EFC6F000EFD6F22
:10FDE600000EFE6F000EFF6F000E016E000E026E1B
:10FDF600000E036E2AECFEF0000E016E000E026E7F
:10FE0600000E036E31ECFEF0000E016E000E026E67
:10FE1600000E036E23ECFEF0000E366E12003FEC71
:10FE2600FEF0AAECFEF0DEECFEF021EE27F111EE7C
:10FE360004F10D0EDBC4E3F4E806FCE258ECFFF037
:10FE4600126E125055ECFEF00A0E1218D8A42EEFC0
:10FE5600FFF030EFFFF021EFFFF080ECFEF000093D
:10FE6600D8B438EFFFF03AEFFFF021EFFFF0000EC5
:10FE7600146E000E136E040E1324D96E050E142094
:10FE8600DA6EDF504AECFEF0134A142A145009E1E8
:10FE96000E0E135CD8A052EFFFF054EFFFF03EEFCA
:10FEA600FFF021EFFFF0FEEFFFF0B7A05DEFFFF0F0
:10FEB6005FEFFFF058EFFFF0000E356E0201D8A796
:10FEC60067EFFFF069EFFFF077EFFFF0358202D8BA
:10FED60077EFFFF00500FA6E1B50FD6E1C50FE6EAC
:10FEE6001D50FF6EFA5012000201D8A37DEFFFF0FD
:10FEF6007FEFFFF08DEFFFF0358402D88DEFFFF036
:10FF06000500FA6E1850FD6E1950FE6E1A50FF6EFF
:10FF1600FA5012003550D8B493EFFFF095EFFFF08A
:10FF2600A2EFFFF002D8A2EFFFF00500FA6E15501F
:10FF3600FD6E1650FE6E1750FF6EFA50120002014B
:10FF4600C7511200000EC26E000EC16E000EBE6ECC
:10FF5600000EC36E000EBF6E000EC06E070ECA6E98
:10FF6600FE0ECB6EF70EC66EC768C868C968040178
:10FF7600186910690869070E206FFC0E286FE70ED6
:10FF8600006F000E196F000E296F000E216F000E14
:10FF9600096F000E016F000E116F000E0201896FCE
:10FFA600000E886F000E876F000E866F000E04012C
:10FFB600226F000E2A6F000E026F000E0A6F000EEF
:10FFC600126F000E1A6F03690B6913691B69070E1E
:10FFD600236F2B6904690C6914691C690F0E246F61
:10FFE6002C69290E02017A6F260E046F2C0E296FDA
:0AFFF600040E766F120095EFFEF086
:020000040020DA
:10000000FF0FFF0FFF0FFF0FFF0FFF0FFF0FFF0F80
:10001000FF0FFF0FFF0FFF0FFF0FFF0FFF0FFF0F70
:10002000FF0FFF0FFF0FFF0FFF0FFF0FFF0FFF0F60
:10003000FF0FFF0FFF0FFF0FFF0FFF0FFF0FFF0F50
:020000040030CA
:0A000000ECFFF7FF9FFFFFFFFFFF7B
:00000001FF
