:04000000FEEFFFF020
:07260000000040040001008E
:10260800166E000184BF0BEF13F00DEF13F05EEFB1
:1026180013F01650050D010EF324F66E260EF42065
:10262800F76E0800F5C484F01650050D010EF32668
:10263800000EF422010EF324F66E260EF420F76E37
:102648000800F5C485F01650050D020EF326000E9D
:10265800F422010EF324F66E260EF420F76E08001D
:10266800F5500309866F1650050D030EF326000E6C
:10267800F422010EF324F66E260EF420F76E0800FD
:10268800F5C489F01650050D040EF326000EF42249
:10269800010EF324F66E260EF420F76E0800F5C43A
:1026A80015F5153A15461546C8501518BF0B1518D7
:1026B800C86E848F1200000EC26E000EC16E000E2E
:1026C800BE6E000EC36E000EBF6E000EC06E070E0B
:1026D800CA6ECB68DF0EC66EC768EF0EC86EC968D3
:1026E800EF0E0401186F8F0E106F0869070E206F28
:1026F8002869DF0E006F000E196F000E296F000E9B
:10270800216F000E096F000E016F000E116F000E91
:102718000201896F000E886F000E876F000E866FAA
:10272800000E0401226F000E2A6F000E026F000EC9
:102738000A6F000E126F000E1A6F03690B69136996
:102748001B69070E236F2B6904690C6914691C69DE
:102758000F0E246F2C69160E02016A6F050E6C6F3E
:10276800320E156F150E6B6F1200000E0001E86F28
:10277800800EF96F000EFA6F000EFB6F050EF16FF9
:10278800060EF06F420EFD6F000EF86F010EF76F28
:10279800000EEF6F010EEE6F190EFF6F000EFE6F49
:1027A800B09AB098B09EB09CA09AA098A09EA09C09
:1027B800C00EFC6F1200AA0EF66E280EF76E000E01
:1027C800F86E01EE10F110EE05F00900F5C4EEF414
:1027D800E550E150FAE101EE01F10F0EEE6AE8066C
:1027E800FDE1000EF86E260EF76E00010EEF14F0F4
:1027F800000E0001606F000E616F000E636F000E27
:10280800646F000E656F000E666F000E676F000E36
:10281800686F12002CEC14F0C188000E04EC13F061
:10282800C1984DEC14F0C18852EC14F011EF14F07B
:10283800FEEFFFF0620E0001AD6F000EAF6F000EED
:10284800B36F020EB16F000EB06F000EAC6F1200C6
:10285800FCEC13F05FEC13F01EEC14F0B9EC13F081
:1028680039EC14F046EC14F01200000E0001846FED
:10287800400E856F040E866F000E8C6F000E896FF8
:10288800C88C1200550E0001B46FAA0EB46FB48143
:102898001200000E0001E86FFC8B12000001849FFB
:0728A8001200574F524C448F
:020000040001F9
:04FFFC00DFEF13F030
:020000040020DA
:10000000FF0FFF0FFF0FFF0FFF0FFF0FFF0FFF0F80
:10001000FF0FFF0FFF0FFF0FFF0FFF0FFF0FFF0F70
:10002000FF0FFF0FFF0FFF0FFF0FFF0FFF0FFF0F60
:10003000FF0FFF0FFF0FFF0FFF0FFF0FFF0FFF0F50
:020000040030CA
:0A000000ECFFF7FF9FFFFFFFFFFF7B
:00000001FF
