:040000000DEF00F010
:04000800FFEF00F016
:10001800FF00AFEF01F0F0EC01F00009D8B417EFE2
:1000280000F019EF00F026EF00F035EC02F04DEC8F
:1000380002F0FF0E2DEC02F047EC02F0000E136EFA
:10004800A7EF00F035EC02F011EC02F00009D8B48B
:1000580030EF00F032EF00F044EF00F006EC02F071
:100068000009D8B43AEF00F03CEF00F040EF00F0A0
:10007800010E136E88EF00F0020E136E88EF00F089
:1000880006EC02F00009D8B44CEF00F04EEF00F097
:1000980052EF00F0030E136E88EF00F0040E136E9B
:1000A80088EF00F085EC01F04DEC02F0E5EC01F092
:1000B8000009D8B462EF00F064EF00F0A5EF00F09B
:1000C80055EC01F0A5EF00F085EC01F04DEC02F0E5
:1000D800A5EF00F0E5EC01F00009D8B476EF00F0E8
:1000E80078EF00F0A5EF00F064EF00F0FBEC01F012
:1000F8000009D8B482EF00F084EF00F0A5EF00F01B
:100108006DEC01F0A5EF00F01350186E196A195044
:10011800000AD8B492EF00F0A5EF00F01850010AD9
:10012800D8B456EF00F0030AD8B468EF00F0010A1B
:10013800D8B46EEF00F0070AD8B47AEF00F0A5EF54
:1001480000F047EC02F01200000EC26E000EC16E05
:10015800000EBE6E000EC36E000EBF6E000EC06EA7
:10016800070ECA6ECB68C668C768E70EC86EC9684E
:1001780004011869E70E106F0869070E206F2869D7
:100188000069000E196F000E296F000E216F000E16
:10019800096F000E016F000E116F000E0201896FCA
:1001A800000E886F000E876F000E866F000E040128
:1001B800226F000E2A6F000E026F000E0A6F180ED3
:1001C800126F000E1A6F03690B6913691B69070E1A
:1001D800236F2B6904690C6914691C690F0E246F5D
:1001E8002C69140E0201706F370E146F380E156FDC
:1001F800130E716F1200FAC41AF5FBC41BF5A5A6FD
:1002080008EF01F00AEF01F020EF01F0B5A60FEFBB
:1002180001F011EF01F020EF01F002D81EEF01F01C
:100228000500FA6E1050FD6E1150FE6E1250FF6EF2
:10023800FA50120050EF01F0A5A025EF01F027EFCA
:1002480001F030EF01F0B5A02CEF01F02EEF01F036
:1002580030EF01F011EF01F0A5A435EF01F037EF11
:1002680001F040EF01F0B5A43CEF01F03EEF01F0E2
:1002780040EF01F011EF01F0A5A245EF01F047EFC3
:1002880001F050EF01F0B5A24CEF01F04EEF01F094
:1002980050EF01F011EF01F01BC5FBF41AC5FAF499
:1002A80011000A500B100C10D8B45DEF01F05FEF8D
:1002B80001F06CEF01F002D86CEF01F00500FA6E66
:1002C8000A50FD6E0B50FE6E0C50FF6EFA50120075
:1002D80012000D500E100F10D8B475EF01F077EF23
:1002E80001F084EF01F002D884EF01F00500FA6E06
:1002F8000D50FD6E0E50FE6E0F50FF6EFA5012003C
:100308001200075008100910D8B48DEF01F08FEFD4
:1003180001F09CEF01F002D89CEF01F00500FA6EA5
:100328000750FD6E0850FE6E0950FF6EFA5012001D
:100338001200000E0001606F000E616F000E636F07
:10034800000E646F000E656F000E666F000E676F1B
:10035800000E686F120001EE01F1160EEE6AE80653
:10036800FDE10401080E5D6F000E5E6F000E5F6F09
:1003780000011CEF02F0620E0001AD6F000EAF6FBE
:10038800000EB36F020EB16F000EB06F000EAC6FAF
:100398001200010E0201946F000E956F000E966F09
:1003A8008D69510E876F510E866F120050EC02F066
:1003B8009DEC01F0CDEC01F0A8EC00F0BFEC01F0F1
:1003C8001200020199BBEBEF01F0EEEF01F0010E14
:1003D800EFEF01F0000E120002019AB5F6EF01F0FE
:1003E800F9EF01F0010EFAEF01F0000E1200020120
:1003F80099B101EF02F004EF02F0010E05EF02F0EF
:10040800000E1200020198B90CEF02F00FEF02F093
:10041800010E10EF02F0000E1200020198A717EF6C
:1004280002F01AEF02F0010E1BEF02F0000E1200AC
:10043800DAEC01F041EC02F01C6E1EEF02F00DEF59
:1004480000F0165029EC02F01200176E17C58CF256
:100458001200176E17C58DF212004AEC02F0156EE5
:100468001200000E02019A6F12003DEC02F0146EA9
:1004780012000201D8908E31120044EC02F01200F2
:1004880002018B51120002019499120002018B5152
:0C0498001200020199851200D69A120091
:020000040020DA
:10000000FF0FFF0FFF0FFF0FFF0FFF0FFF0FFF0F80
:10001000FF0FFF0FFF0FFF0FFF0FFF0FFF0FFF0F70
:10002000FF0FFF0FFF0FFF0FFF0FFF0FFF0FFF0F60
:10003000FF0FFF0FFF0FFF0FFF0FFF0FFF0FFF0F50
:020000040030CA
:0A000000ECFFF7FF9FFFFFFFFFFF7B
:00000001FF
