:040000000DEF00F010
:040008006EEF13F094
:06001800FF0041EF15F0AE
:07260000000040040001008E
:10260800166E000184BF0BEF13F00DEF13F06DEFA2
:1026180013F01650050D010EF324F66E260EF42065
:10262800F76EF86A000EF8220800F5C484F0165018
:10263800050D010EF326000EF422010EF324F66EAA
:10264800260EF420F76EF86A000EF8220800F5C48A
:1026580085F01650050D020EF326000EF422010E29
:10266800F324F66E260EF420F76EF86A000EF822B0
:102678000800F5500309866F1650050D030EF32662
:10268800000EF422010EF324F66E260EF420F76EE7
:10269800F86A000EF8220800F5C489F01650050DF6
:1026A800040EF326000EF422010EF324F66E260E15
:1026B800F420F76EF86A000EF8220800F5C415F544
:1026C800153A15461546C8501518BF0B1518C86E8B
:1026D800848F1200FAC413F5FBC414F5A1A277EF96
:1026E80013F079EF13F08FEF13F0B1A27EEF13F030
:1026F80080EF13F08FEF13F002D88DEF13F0050081
:10270800FA6E0A50FD6E0B50FE6E0C50FF6EFA50BA
:102718001200C9EF13F0A1A494EF13F096EF13F091
:10272800ACEF13F0B1A49BEF13F09DEF13F0ACEFF7
:1027380013F002D8AAEF13F00500FA6E1050FD6EE0
:102748001150FE6E1250FF6EFA501200C9EF13F0CE
:10275800A1A0B1EF13F0B3EF13F0C9EF13F0B1A0DC
:10276800B8EF13F0BAEF13F0C9EF13F002D8C7EFC0
:1027780013F00500FA6E0D50FD6E0E50FE6E0F50F0
:10278800FF6EFA501200C9EF13F014C5FBF413C51D
:10279800FAF41100000EC26E000EC16E000EBE6E7D
:1027A800000EC36E000EBF6E000EC06E070ECA6E1E
:1027B800FE0ECB6EC668C7689F0EC86EC968EF0E5E
:1027C8000401186F8F0E106F0869070E206FFD0E39
:1027D800286FDF0E006F000E196F000E296F000EB4
:1027E800216F000E096F000E016F000E116F000EB1
:1027F8000201896F000E886F000E876F000E866FCA
:10280800000E0401226F000E2A6F000E026F000EE8
:102818000A6F000E126F000E1A6F03690B691369B5
:102828001B69070E236F2B6904690C6914691C69FD
:102838000F0E246F2C69160E02016A6F050E6C6F5D
:10284800320E156F200E296F290E726F150E6B6FE1
:102858001200B2A032EF14F034EF14F02DEF14F0A0
:10286800000E1C6E0201B2A73CEF14F03EEF14F00C
:102878004CEF14F01C8202D84CEF14F00500FA6EED
:102888000750FD6E0850FE6E0950FF6EFA50120098
:102898000201B2A352EF14F054EF14F062EF14F0F7
:1028A8001C8402D862EF14F00500FA6E0450FD6E25
:1028B8000550FE6E0650FF6EFA5012001C50D8B438
:1028C80068EF14F06AEF14F077EF14F002D877EF9E
:1028D80014F00500FA6E0150FD6E0250FE6E0350B2
:1028E800FF6EFA5012000201A1511200000E0201FF
:1028F800A56F000EA66F000EA76F000EA86F000E42
:10290800A96F000EAA6FB00EAB6F800EAC6F000EF1
:10291800AD6F0C0EAE6F000EAF6F000EB06F000EF5
:10292800B16F000EB26F000EB36F9C0E156E2B0EBA
:10293800166E000E176EA5EC15F09A0E156E2B0E7E
:10294800166E000E176E9EEC15F09E0E156E2B0E71
:10295800166E000E176EACEC15F0000E1C6E120011
:1029680086EC15F07AEC14F0C188000E04EC13F034
:10297800C1981D0E166E050E176E000E196E010E0B
:10298800186E06EC15F01E0E166E050E176E000E6C
:10299800196E010E186E24EC15F02DEC14F01D6E56
:1029A8001D5093EC15F0C188C8EC15F0B9EF14F080
:1029B8000DEF00F0000E0001846F400E856F040ECD
:1029C800866F000E8C6F000E896FC88CA184A18061
:1029D800A182A40E156E2B0E166E000E176EC1EC9A
:1029E80015F0A20E156E2B0E166E000E176EBAECB1
:1029F80015F0A00E156E2B0E166E000E176EB3ECAA
:102A080015F0120016C51AF517C51BF516EF15F0C7
:102A1800000E68EC15F01AC5D9F41BC5DAF4DF6EA0
:102A28001A4A1B2A1806D8A01906182806E11928D8
:102A3800D8A421EF15F023EF15F00CEF15F01200D4
:102A480016C51AF517C51BF533EF15F01AC5D9F4D5
:102A58001BC5DAF4DF5068EC15F01A4A1B2A180671
:102A6800D8A01906182806E11928D8A43EEF15F0B1
:102A780040EF15F02AEF15F01200A60EF66E2B0E99
:102A8800F76E000EF86E0900F5C41EF51D6A1C6A83
:102A98000401080E5D6F000E5E6F000E5F6F00018F
:102AA800B4EF14F0000E0001606F000E616F000EAD
:102AB800636F000E646F000E656F000E666F000E88
:102AC800676F000E686F1200156E010E0001826FAD
:102AD80015C581F0B1A073EF15F075EF15F06EEF25
:102AE80015F0000180511200630E0001AD6F000E59
:102AF800AF6F000EB36F020EB16F000EB06F000E15
:102B0800AC6F1200CBEC15F056EC15F0CEEC13F0D0
:102B180078EC15F07AEC14F0DEEC14F01200156E77
:102B2800B2A299EF15F09BEF15F094EF15F015C5CB
:102B3800A3F2120015C504F516C505F517C506F567
:102B4800120015C507F516C508F517C509F51200D1
:102B580015C501F516C502F517C503F5120015C50B
:102B68000AF516C50BF517C50CF5120015C50DF5B8
:102B780016C50EF517C50FF5120015C510F516C5C3
:102B880011F517C512F512000001849F1200D69A9C
:0F2B98001200120012001200120012001200446C
:020000040020DA
:10000000FF0FFF0FFF0FFF0FFF0FFF0FFF0FFF0F80
:10001000FF0FFF0FFF0FFF0FFF0FFF0FFF0FFF0F70
:10002000FF0FFF0FFF0FFF0FFF0FFF0FFF0FFF0F60
:10003000FF0FFF0FFF0FFF0FFF0FFF0FFF0FFF0F50
:020000040030CA
:0A000000ECFFF7FF9FFFFFFFFFFF7B
:00000001FF
