:040000000DEF00F010
:0400080071EF00F0A4
:10001800FF0090EF00F0000EC26E000EC16E000EE1
:10002800BE6E080EC36E100EBF6E000EC06E070EB9
:10003800CA6EF70ECB6EC668C768C868C96804017F
:1000480018691069EF0E086F070E206FF70E286FFA
:100058000069000E196F000E296F000E216F100E37
:10006800096F000E016F000E116F000E0201896FFB
:10007800000E886F000E876F000E866F000E040159
:10008800226F000E2A6F000E026F000E0A6F000E1C
:10009800126F000E1A6F03690B6913691B69070E4B
:1000A800236F2B6904690C6914691C690F0E246F8E
:1000B8002C699E8E1200000E0001606F000E616FA9
:1000C800000E636F000E646F000E656F000E666FA2
:1000D800000E676F000E686F12009EAE76EF00F09C
:1000E80078EF00F081EF00F0AEAE7DEF00F07FEF2B
:1000F80000F081EF00F0ABEC00F01100620E00019F
:10010800AD6F000EAF6F000EB36F020EB16F000E31
:10011800B06F000EAC6F12000401080E5D6F000E88
:100128005E6F000E5F6F0001A3EF00F0A9EC00F016
:100138005FEC00F00FEC00F082EC00F012009AEC9B
:1001480000F0A5EF00F00DEF00F0D69A12001200B3
:020000040020DA
:10000000FF0FFF0FFF0FFF0FFF0FFF0FFF0FFF0F80
:10001000FF0FFF0FFF0FFF0FFF0FFF0FFF0FFF0F70
:10002000FF0FFF0FFF0FFF0FFF0FFF0FFF0FFF0F60
:10003000FF0FFF0FFF0FFF0FFF0FFF0FFF0FFF0F50
:020000040030CA
:0A000000ECFFF7FF9FFFFFFFFFFF7B
:00000001FF
